:100000000C9434000C9451000C9451000C94510049
:100010000C9451000C9451000C9451000C9451001C
:100020000C9451000C9451000C9451000C9451000C
:100030000C9451000C9451000C9451000C945100FC
:100040000C9451000C9451000C9451000C949302A8
:100050000C94DE020C9451000C9451000C9451004D
:100060000C9451000C94510011241FBECFEFD8E026
:10007000DEBFCDBF11E0A0E0B1E0E6E4F8E002C0F1
:1000800005900D92AE37B107D9F721E0AEE7B1E0A8
:1000900001C01D92A038B207E1F70E9453000C94F2
:1000A00021040C940000CF93DF93CDB7DEB76C979B
:1000B0000FB6F894DEBF0FBECDBF84E690E024E615
:1000C00030E0F90120812160FC01208384E690E08A
:1000D00024E630E0F90120812068FC01208384E6D9
:1000E00090E024E630E0F90120812460FC012083C7
:1000F00084E690E024E630E0F90120812062FC01F2
:10010000208384E690E024E630E0F9012081286035
:10011000FC01208384E690E024E630E0F9012081B0
:100120002064FC01208384E690E024E630E0F901BD
:1001300020812D7FFC01208384E290E024E230E0E6
:10014000F90120812062FC01208385E290E025E214
:1001500030E0F90120812F7DFC01208387E090E0D1
:100160000E94B2018FE590E02FE530E0F901208197
:100170002068FC01208380E091E00E946E0280E014
:1001800090E0A0ECB0E48D839E83AF83B88720E03D
:1001900030E04AE755E46D817E818F8198850E9429
:1001A0008C03DC01CB0189879A87AB87BC8720E071
:1001B00030E040E85FE369857A858B859C850E9405
:1001C000060388232CF481E090E09E878D873FC052
:1001D00020E03FEF4FE757E469857A858B859C8562
:1001E0000E94870318164CF520E030E040E251E40D
:1001F0006D817E818F8198850E948C03DC01CB010B
:10020000BC01CD010E940B03DC01CB019E878D87D1
:100210000FC080E991E0988B8F878F85988901972F
:10022000F1F7988B8F878D859E8501979E878D87A7
:100230008D859E85892B69F714C069857A858B85A4
:100240009C850E940B03DC01CB019E878D878D85E9
:100250009E859A8B898B89899A890197F1F79A8B68
:10026000898B80E491E00E946E0285E290E025E2B5
:1002700030E0F901308120E22327FC01208380E077
:1002800090E0AAE7B4E489839A83AB83BC8320E03F
:1002900030E04AE755E469817A818B819C810E9434
:1002A0008C03DC01CB018B8B9C8BAD8BBE8B20E058
:1002B00030E040E85FE36B897C898D899E890E94EC
:1002C000060388232CF481E090E0988F8F8B3FC049
:1002D00020E03FEF4FE757E46B897C898D899E8949
:1002E0000E94870318164CF520E030E040E251E40C
:1002F00069817A818B819C810E948C03DC01CB0116
:10030000BC01CD010E940B03DC01CB01988F8F8BC8
:100310000FC080E991E09A8F898F898D9A8D01971E
:10032000F1F79A8F898F8F89988D0197988F8F8B8E
:100330008F89988D892B69F714C06B897C898D8989
:100340009E890E940B03DC01CB01988F8F8B8F89D4
:10035000988D9C8F8B8F8B8D9C8D0197F1F79C8F47
:100360008B8F83CFCF93DF9300D0CDB7DEB79A8347
:10037000898389819A8101969A83898385EC90E0AB
:1003800029813A81232F3327FC01208384EC90E0DC
:100390002981FC01208380EC90E020EC30E0F90121
:1003A00020812E7FFC01208380EC90E020EC30E067
:1003B000F90120812D7FFC01208380EC90E020EC6E
:1003C00030E0F90120812F7BFC01208381EC90E05B
:1003D00021EC30E0F90120812B7FFC01208381ECAE
:1003E00090E021EC30E0F90120812F7EFC01208398
:1003F00081EC90E021EC30E0F90120812F7DFC01BF
:10040000208381EC90E021EC30E0F90120812F7B0A
:10041000FC01208381EC90E021EC30E0F9012081A7
:100420002F77FC01208382EC90E022EC30E0F90190
:1004300020812E7FFC01208381EC90E021EC30E0D4
:10044000F90120812260FC01208381EC90E021EC05
:1004500030E0F90120812460FC01208381EC90E0F0
:1004600021EC30E0F9012081277FFC01208381EC21
:1004700090E021EC30E0F90120812F7EFC01208307
:1004800081EC90E021EC30E0F90120812062FC0158
:10049000208381EC90E021EC30E0F90120812F7B7A
:1004A000FC01208381EC90E021EC30E0F901208117
:1004B0002F77FC01208386EC90E0FC01108281EC18
:1004C00090E021EC30E0F90120812860FC012083DC
:1004D00000000F900F90DF91CF910895CF93DF939D
:1004E00000D0CDB7DEB79A83898389819A819093B2
:1004F0007F0180937E0181EC90E021EC30E0F901F6
:1005000020812062FC01208381EC90E021EC30E02E
:10051000F90120812064FC01208300000F900F90DE
:10052000DF91CF9108951F920F9200905F000F927C
:1005300011242F933F934F935F938F939F93EF9348
:10054000FF93CF93DF93CDB7DEB780917E0190917B
:100550007F01FC018081882391F026EC30E08091BE
:100560007E0190917F01AC014F5F5F4F50937F01FF
:1005700040937E01FC018081F90180830EC086ECEE
:1005800090E02AE0FC01208381EC90E021EC30E057
:10059000F90120812F7DFC0120830000DF91CF91A4
:1005A000FF91EF919F918F915F914F913F912F918B
:1005B0000F9000925F000F901F9018951F920F925E
:1005C00000905F000F9211242F933F938F939F937E
:1005D000EF93FF93CF93DF93CDB7DEB781EC90E03D
:1005E00021EC30E0F90120812F7BFC012083000009
:1005F000DF91CF91FF91EF919F918F913F912F913B
:100600000F9000925F000F901F9018950E943A0380
:1006100008F481E008950E94660388F09F5798F0DF
:10062000B92F9927B751B0F0E1F0660F771F881FF7
:10063000991F1AF0BA95C9F714C0B13091F00E9411
:100640008003B1E008950C948003672F782F8827EA
:10065000B85F39F0B93FCCF3869577956795B39538
:10066000D9F73EF490958095709561957F4F8F4FA7
:100670009F4F0895990F0008550FAA0BE0E8FEEF71
:1006800016161706E807F907C0F012161306E40756
:10069000F50798F0621B730B840B950B39F40A264F
:1006A00061F0232B242B252B21F408950A2609F42D
:1006B000A140A6958FEF811D811D089557FD90588B
:1006C000440F551F59F05F3F71F04795880F97FB16
:1006D000991F61F09F3F79F08795089512161306D0
:1006E0001406551FF2CF4695F1DF08C016161706FF
:1006F0001806991FF1CF8695710561050894089534
:10070000E894BB2766277727CB0197F908950E94C5
:100710003A0308F48FEF08950E949F030C9410048D
:100720000E94020438F00E94090420F0952311F081
:100730000C94F9030C94FF0311240C9481030E9480
:100740005E0370F3959FC1F3950F50E0551F629FB4
:10075000F001729FBB27F00DB11D639FAA27F00D1A
:10076000B11DAA1F649F6627B00DA11D661F829F41
:100770002227B00DA11D621F739FB00DA11D621F26
:10078000839FA00D611D221F749F3327A00D611D43
:10079000231F849F600D211D822F762F6A2F112425
:1007A0009F5750409AF0F1F088234AF0EE0FFF1F58
:1007B000BB1F661F771F881F91505040A9F79E3FAF
:1007C000510580F00C94F9030C9481035F3FE4F32E
:1007D000983ED4F3869577956795B795F795E79505
:1007E0009F5FC1F7FE2B880F911D9695879597F90E
:1007F000089597F99F6780E870E060E008959FEFA3
:1008000080EC089500240A941616170618060906A7
:10081000089500240A941216130614060506089576
:10082000092E0394000C11F4882352F0BB0F40F4FE
:10083000BF2B11F460FF04C06F5F7F4F8F4F9F4F3E
:060840000895F894FFCFBB
:100846005468697320697320612073696D706C65E3
:1008560020737472696E67206C69746572616C20AE
:10086600666F722074657374696E672055415254C1
:100876003020696E2041544D45474133323850008F
:100886005769746820746869732074657374207777
:10089600652063616E2066696E6420706572666F9E
:1008A600726D616E6365206F66205541525430202B
:0E08B600696E2041544D4547413332385000A1
:00000001FF
